:08000000803102288731FD2F39
<<<<<<< HEAD
:1007C4008331F8232400961408008331F82324008D
:1007D400161408008331F823240016150800F000CD
:1007E4008331F823700824009100080024001419B0
:1007F400F82B16081F3903190800F82BF000200005
:10080400111E012C700823009A00080028302400CF
:10081400950096010930920021008E150E160800ED
:1008240021000E138E17673023009B001E151E1225
:100834009D179E161D161E131D13080071088400B3
:1008440072088500120003190800710884007208F8
:10085400850000088431002484310130F107003020
:10086400F23D202CF1008331F823843124009615C5
:100874008331F823843124001108F0007008F20059
:100884008331F82384317108031D4B2C2400961204
:10089400161672080800F6007608F2007208F700CF
:1008A400770886008701010803195D2C0130F200E6
:1008B4007208F707522C7608F2000030F300F209B0
:1008C400F309F20A0319F30A7708F4000030F5007B
:1008D40072087407F0007308753DF1000800833155
:1008E400E7238431D0308331F12384316B30833179
:1008F400F123843102308331F12384310030833198
:10090400F12384318331EC2384318331E72384312F
:10091400D0308331F12384311B308331F12384318E
:1009240000308331F123843100308331F123843169
:100934008331EC2308008431082484318431122467
:1009440084318431712484318331E7238431D0307C
:100954008331F12384311B308331F123843100301E
:100964008331F123843100308331F12384318331A5
:10097400EC23843115302000BA004B30B900BE306E
:10098400890BC22CB90BC22CBA0BC22C0000383014
:10099400F1008830F200843120248431A62CF60141
:1009A400F31FDB2CF209F309F20A0319F30AF60127
:1009B400F60AF11FE22CF009F109F00A0319F10A11
:1009C400700871040319092DF501F50AF11BF42CC3
:1009D4000130F035F10D890BEB2C0130F400740873
:1009E400F507E82C71087302031DFA2C70087202D3
:1009F400031C002D7008F2027108F33B0130F1363C
:100A0400F00C890B012D0130F502031DF42C76083E
:100A14000319112DF209F309F20A0319F30A7308F1
:100A2400F1007208F00008002000A500A101A20155
:100A3400250884314D2485317008FF3E2000A30031
:100A4400FF30713DA4002208803AF8002408803A5F
:100A54007802031D2F2D230821020318080020000B
:100A640021082507F8007808860087010108F900A5
:100A74007908A00023082507F80078088600870174
:100A84000108F90021082507FA007A088600870181
:100A9400790881002008F80023082507F90079085F
:100AA40086008701780881000130A1070030A23D4B
:100AB400FF30A307FF30A43D252DF601F11F692D5A
:100AC400F009F109F00A0319F10AF601F60AF31F15
:100AD400742DF209F309F20A0319F30A0130F40040
:100AE4007408F606F701F801700871040319A32DC0
:100AF400F501F50AF11B882D0130F035F10D890B54
:100B04007F2D0130F4007408F5077C2D0130F73592
:100B1400F80D890B892D71087302031D932D70083C
:100B24007202031C9A2D7008F2027108F33B7714C9
:100B34000130F136F00C890B9B2D0130F502031DB9
:100B4400882D76080319AB2DF709F809F70A03195C
:100B5400F80A7808F1007708F00008007C08200003
:100B6400A9007B08A800A91FBC2DFB09FC09FB0AEE
:100B74000319FC0AAA01AB010A30F0000030F100AD
:100B84007C08F3007B08F2008431D124853170089D
:100B9400303E2000A6002A087D07A700270886000B
:100BA4008701260881000130AA070030AB3D0A30D6
:100BB400F0000030F1007C08F3007B08F20085317E
:100BC4005F2585317108FC007008FB007C08803AC1
:100BD4002000A60080302602031DF22D01307B0286
:100BE4000318BE2D2000A91F052E2D30A6002A08AB
:100BF4007D07A700270886008701260881000130A9
:100C0400AA070030AB3D2A087D07A6002608860007
:100C1400870181017D088531162508002000A30085
:100C24008331E7238631D0308331F12386313B3061
:100C34008331F12386318331E2238631D13083310C
:100C4400F12386310030843134248631F900FA01ED
:100C54007908FA00F90179082000A0007A08A100B7
:100C64000030843134248631F90079082000A20050
:100C74000030843134248631F900FA017908FA000D
:100C8400F90179082000A0007A08A100003084311D
:100C940034248631F90079082000A2000030843120
:100CA40034248631F900FA017908FA00F901790847
:100CB4002000A0007A08A100003084313424863159
:100CC400F90079082000A2000030843134248631F0
:100CD400F900FA017908FA00F90179082000A00066
:100CE4007A08A1000030843134248631F90079086F
:100CF4002000A2000030843134248631F900FA0146
:100D04007908FA00F90179082000A0007A08A10006
:100D14000030843134248631F90079082000A2009F
:100D24000030843134248631F900FA017908FA005C
:100D3400F90179082000A0007A08A100003084316C
:100D440034248631F90079082000A200003084316F
:100D540034248631F900FA017908FA00F901790896
:100D64002000A0007A08A1000030843134248631A8
:100D7400F90079082000A2008331EC238631543035
:100D8400F0000130F10020002308063E86008701B0
:100D9400403FF200413FF30085315F2520002308E6
:100DA400063E860087017008C03F7108C13F0800F5
:100DB400200038088631102686311C30F100883036
:100DC400F20084312024863120003808860087010F
:100DD400403FFB00413FFC002E30AC002C08FD00DE
:100DE4008531B02586315830F1008830F2008431E5
:100DF400202486312E30F1000030F200843120248A
:100E040086311A30F1008830F20084312024863192
:100E140020003808023E86008701403FFB00413F26
:100E2400FC002E30AC002C08FD008531B025863145
:100E34006330F1008830F2008431202486312E3072
:100E4400F1000030F2008431202486311A30F100A0
:100E54008830F20084312024863120003808043E92
:100E640086008701403FFB00413FFC002E30AC0070
:100E74002C08FD008531B02586316E30F1008830B4
:100E8400F2008431202486312E30F1000030F2004B
:100E94008431202486311A30F1008830F200843104
:100EA4002024863120003808083E86008701403F10
:100EB400FB00413FFC002E30AC002C08FD008531C6
:100EC400B02586317930F1008830F2008431202455
:100ED40086312E30F1000030F20084312024863136
:100EE4001A30F1008830F200843120248631200049
:100EF40038080A3E86008701403FFB00413FFC0062
:100F04002E30AC002C08FD008531B02586318330AD
:100F1400F1008830F2008431202486312E30F10033
:100F24000030F2008431202486311A30F1008830F8
:100F3400F200843120248631200038080C3E8600DB
:100F44008701403FFB00413FFC002E30AC002C08E1
:100F5400FD008531B02586318D30F1008830F200F6
:100F64008431202486312E30F1000030F2008431A7
:100F7400202486311A30F1008830F2008431202494
:100F8400863120003808063E86008701403FFB007A
:100F9400413FFC002E30AC002C08FD008531B0250B
:100FA40086314930F1008830F200843120248631C2
:100FB4002E30F1000030F2008431202486311A30C2
:100FC400F1008830F2008431202486310030F100B1
:100FD4008830F20084312024863115302000AD00A1
:100FE4004B30AC00BE30890BF52FAC0BF52FAD0B9D
:100FF400F52F00000800200084319D2C2F342A3462
:101004002A342A342A342A342A342A342A342A34EC
:101014002A342A342A342A342A342A342A342A34DC
:101024002A342A342A342A342A342F3420340A34F1
:101034000A3400340A340A342F342A342A342A3441
:101044002A342A342A342A342A342A342A342A34AC
:101054002A342A342A342A342A342A342A342A349C
:101064002A342A342A342F340A34003463346F3453
:101074006E3466346934673420346F3476346534BE
:1010840072342E342E342E3420340A340034543442
:1010940065346D3470346534723461347434753449
:1010A4007234653420343D342034003441346334A4
:1010B400633465346C342E34583420343D34203455
:1010C400003441346334633465346C342E3459341D
:1010D40020343D3420340034413463346334653483
:1010E4006C342E345A3420343D34203400344734A4
:1010F400793472346F342E34583420343D342034EF
:1011040000344734793472346F342E3459342034F3
:101114003D34203400344734793472346F342E34FF
:0A1124005A3420343D3420340034E6
=======
:10097C0085314F2524009614080085314F2524001D
:10098C001615080085314F25240016140800F300B5
:10099C0085314F257308240091000800F0002000D9
:1009AC00111ED52C700823009A00080021008C140D
:1009BC0023008C10053021009D009E01080028307A
:1009CC0024009500203096000930920021008E15ED
:1009DC000E16080021000E138E17673023009B00A3
:1009EC001E151E129D179E161D161E131D13080094
:1009FC0021001D150B30F2006230890B032DF20B18
:100A0C00032D003221009D149D180A2D1C08F100A5
:100A1C001B08F0000800F5008431BE24853121301C
:100A2C008431CD24853175088431CD248531740809
:100A3C008431CD2485318431C324080071088400AD
:100A4C0072088500120003190800710884007208EE
:100A5C00850000088431D42485310130F107003041
:100A6C00F23D242D85314F25853124009615853195
:100A7C004F25853124001108F5007508F7008531E4
:100A8C004F257708F500F6017508F3007608F40099
:100A9C0008002400141D672D77308431D42485314F
:100AAC000A308431D42485311530F2004B30F100FA
:100ABC00BE30890B5F2DF10B5F2DF20B5F2D0032D9
:100ACC004F2D16081F3903190800522D0330F7005B
:100ADC000830F6007730890B712DF60B712DF70B62
:100AEC00712D00008030F6007608F400123085314C
:100AFC00112585310330F7000830F6007730890B6B
:100B0C00852DF60B852DF70B852D0000F401F40ACD
:100B1C0009308531112508008431C8248531D03045
:100B2C008431CD2485316B308431CD248531023034
:100B3C008431CD24853100308431CD24853184310C
:100B4C00C32485318431C8248531D0308431CD24FF
:100B5C0085311B308431CD24853100308431CD2456
:100B6C00853100308431CD2485318431C324080093
:100B7C000430F6007608F4000C30853111258531EF
:100B8C001930F6007608F4003E3085311125853198
:100B9C001130F6007608F40072308531112585315C
:100BAC00F130F6007608F40073308531112585316B
:100BBC001630F6007608F400173085311125853192
:100BCC000430F6007608F400183085311125853193
:100BDC00A430F6007608F4003230853111258531C9
:100BEC000230F6007608F400193085311125853174
:100BFC007A30F6007608F4001A30853111258531EB
:100C0C000A30F6007608F40003308531112508000F
:100C1C00F601F11F182EF009F109F00A0319F10A77
:100C2C00F601F60AF31F232EF209F309F20A03194F
:100C3C00F30A0130F4007408F606F701F8017008A5
:100C4C0071040319522EF501F50AF11B372E0130F0
:100C5C00F035F10D890B2E2E0130F4007408F507D8
:100C6C002B2E0130F735F80D890B382E71087302D5
:100C7C00031D422E70087202031C492E7008F202EA
:100C8C007108F33B77140130F136F00C890B4A2EC6
:100C9C000130F502031D372E760803195A2EF70979
:100CAC00F809F70A0319F80A7808F1007708F00038
:100CBC00080023008C018E01783021009904033048
:100CCC0099040C130F308D0003302000AE002E0859
:100CDC0021008E040C148E150E168531922586314A
:100CEC008431DC2486318431E52486318431F0244E
:100CFC00863185316C2586318631BD26863185312C
:100D0C00BE25863120000C1C9D2E87314327863151
:100D1C0079082000AE002E08B000D030F1008A30E7
:100D2C00F20085312425863120003008A82EDC30D5
:100D3C00F1008A30F2008531242586318431FE247D
:100D4C00863170088431D42486310A308431D4241D
:100D5C00863115302000AF004B30AE00BE30890B11
:100D6C00B52EAE0BB52EAF0BB52E0000882E8030F5
:100D7C00F6007608F40012308531112586310330E7
:100D8C00F7000830F6007730890BCA2EF60BCA2E06
:100D9C00F70BCA2E00000430F6007608F4003A3047
:100DAC00853111258631C030F6007608F4001330F9
:100DBC00853111258631F4010030853111258631BC
:100DCC00F40110308531112586314030F60076085B
:100DDC00F4000D308531112586311830F600760877
:100DEC00F40014308531112586319530F6007608E3
:100DFC00F40024308531112586313330F600760825
:100E0C00F4002530853111258631C530F600760881
:100E1C00F40013308531112586314030F600760808
:100E2C00F4006A308531112586314030F6007608A1
:100E3C00F40001308531112586316030F6007608DA
:100E4C00F4000230853111258631C730F600760862
:100E5C00F40013308531112586310830F600760800
:100E6C00F40041308531112586312030F6007608AA
:100E7C00F40015308531112508008431C8248731E0
:100E8C00D0308431CD2487313B308431CD2487312F
:100E9C008431C8248731D1308431CD2487318531D8
:100EAC00382587317308FB007408FC007B08FC00B4
:100EBC00FB0185313825873173087B042000A000A5
:100ECC0074087C04A1008531382587317308FB0038
:100EDC007408FC007B08FC00FB0185313825873148
:100EEC0073087B042000A20074087C04A3008531E5
:100EFC00382587317308FB007408FC007B08FC0064
:100F0C00FB0185313825873173087B042000A40050
:100F1C0074087C04A5008531382587317308FB00E3
:100F2C007408FC007B08FC00FB01853138258731F7
:100F3C0073087B042000A60074087C04A70085318C
:100F4C00382587317308FB007408FC007B08FC0013
:100F5C00FB0185313825873173087B042000A800FC
:100F6C0074087C04A9008531382587317308FB008F
:100F7C007408FC007B08FC00FB01853138258731A7
:100F8C0073087B042000AA0074087C04AB00853134
:100F9C00382587317308FB007408FC007B08FC00C3
:100FAC00FB0185313825873173087B042000AC00A8
:100FBC0074087C04AD008431C32487318530200053
:100FCC00A6073030A73D5430F0000130F10027085F
:100FDC00F3002608F20086310E2671082000A700C7
:100FEC007008A6002908FA002808F900080020005B
:100FFC0086315F2E12340034803400343A3400349D
:10100C000434003412340034003400341734003407
:10101C0013340034183400340134003432340034C6
:10102C00B634003419340034023400341A34003429
:10103C007A340034033400340A3400340C34003471
:10104C00003400343E340034003400347034003446
:10105C003A34003471340034353400347234003492
:10106C001134003473340034F0340034A2340034BE
:10107C000134003415340034003400347A34003434
:10108C00203400347B340034103400347C3400348D
:10109C001E3400347D340034353400347E34003456
:1010AC005A3400347F3400346934003480340034D2
:1010BC00763400348134003480340034823400348B
:1010CC0088340034833400348F3400348434003456
:1010DC009634003485340034A33400348634003420
:1010EC00AF34003487340034C434003488340034D2
:1010FC00D734003489340034E834003413340034E9
:10110C00C034003400340034003400341034003463
:10111C00003400340D3400344034003414340034C2
:10112C0018340034A534003405340034AB340034A6
:10113C00073400342434003495340034253400341E
:10114C003334003426340034E33400349F34003418
:10115C0078340034A034003468340034A1340034C2
:10116C0003340034A6340034D8340034A7340034AB
:10117C00D8340034A8340034F0340034A9340034AA
:10118C0090340034AA3400349434003413340034D2
:10119C00C53400343034003400340034313400347D
:1011AC00003400340E340034613400340F34003415
:1011BC004B34003416340034023400341E34003402
:1011CC000734003421340034023400342234003427
:1011DC00913400342934003407340034333400346F
:1011EC000B340034353400340B34003437340034D1
:1011FC001D34003438340034713400343934003444
:10120C002A3400343C340034783400344D34003407
:10121C00403400344E34003420340034693400340B
:10122C000034003474340034103400348D34003401
:10123C004F3400348E340034003400348F34003496
:10124C0000340034903400340034003491340034D1
:10125C000034003496340034003400349A340034B2
:10126C0000340034B034003484340034B1340034ED
:10127C000C340034B23400340E340034B334003443
:10128C0082340034B83400340A340034433400342B
:10129C000A34003444340034F0340034453400341F
:1012AC003434003446340034583400344734003479
:1012BC0028340034483400343A340034593400347F
:1012CC00883400345A340034883400345B340034AD
:1012DC00443400345C340034673400345D340034FE
:1012EC00493400345E3400340E3400346C34003431
:1012FC000A3400346D340034553400346E34003408
:10130C00113400346F3400349E3400346A340034A9
:10131C00403400340134003440340034023400349E
:10132C006034003413340034C73400344F34003488
:10133C008034003450340034803400345134003460
:10134C00003400345234003422340034533400342A
:10135C005E34003454340034803400345834003457
:10136C009E34003441340034083400343F340034AB
:10137C0000340034753400340534003476340034D1
:10138C00E13400344C34003400340034773400340D
:10139C00013400343D340034483400344B340034D0
:1013AC0009340034C9340034603400345634003409
:1013BC004034003434340034113400343B340034C1
:1013CC0012340034A43400348234003496340034A3
:1013DC000034003497340034303400349834003402
:1013EC002034003499340034303400349A340034CE
:1013FC00843400349B340034293400349C3400345D
:10140C00033400349D3400344C3400349E340034A6
:10141C003F340034783400340434003479340034EC
:10142C0001340034C8340034F034003479340034DE
:10143C000F340034C83400340034003479340034B0
:10144C0010340034C83400347E3400347934003421
:10145C000A340034C8340034803400347934003415
:10146C000B340034C8340034013400347934003483
:10147C000C340034C83400340F3400347934003464
:10148C000D340034C8340034203400347934003442
:10149C0009340034C83400348034003479340034D6
:1014AC0002340034C8340034C0340034793400348D
:1014BC0003340034C83400344034003479340034FC
:1014CC0005340034C83400343034003479340034FA
:1014DC0026340034FF340034FF340034123400342A
:1014EC00003400348C3400340034003404340034C0
:1014FC000034003440340034C0340034143400342C
:10150C006A3400344F3400348034003450340034A6
:10151C0080340034513400340034003452340034FC
:10152C0022340034533400345E34003454340034E8
:10153C00803400343D34003440340034FF34003403
:10154C00FF3400343E340034193400347234003427
:10155C001134003473340034F13400341734003453
:10156C00163400341834003404340034323400346B
:10157C00A434003419340034023400341A340034E6
:10158C007A340034033400340A340034FF34003429
:10159C00FF3400345234453447345F3443344F34D1
:1015AC004D34373420343D342034003449345234F3
:0615BC0020343D34003430
>>>>>>> parent of 9a4dca4... Int2Str Coversion
:020000040001F9
:02000E00FCFFF5
:00000001FF
