:08000000803102288731F22F44
:100966008431F2242400161408008431F224240071
:1009760016150800FE0012001E00FE0BBE2C0034E9
:10098600F1008431F2247108240091000800F0007F
:100996002000111ECB2C700823009A000800E834B2
:1009A6000334643400340A3400340134003428300B
:1009B6002400950096010930920021008E150E162E
:1009C600080021000E138E17673023009B001E15AA
:1009D6001E129D179E161D161E131D1308002400B9
:1009E600141DFE2C77308431CA2484310A308431B8
:1009F600CA248431F22C16081F3903190800F52C75
:100A060021001D150B30F2006230890B082DF20B08
:100A1600082D003221009D149D180F2D1C08F10091
:100A26001B08F00008007108840072088500120097
:100A360003190800710884007208850000088431D3
:100A4600CA2485310130F1070030F23D162DF2003F
:100A56008431F2248531240096158431F2248531BF
:100A660024001108F1007108F3008431F224853165
:100A76007208031D412D24009612161673080800ED
:100A8600F6007608F2007208F700770886008701FC
:100A960001080319532D0130F2007208F707482D9B
:100AA6007608F2000030F300F209F309F20A03199E
:100AB600F30A7708F4000030F50072087407F000B6
:100AC6007308753DF10008008431B3248531D030B8
:100AD6008431C32485316B308431C324853102309F
:100AE6008431C324853100308431C3248531843177
:100AF600B82485318431B3248531D0308431C32480
:100B060085311B308431C324853100308431C324C0
:100B1600853100308431C32485318431B8240800FE
:100B2600F601F31F9D2DF209F309F20A0319F30AE0
:100B3600F601F60AF11FA42DF009F109F00A0319CE
:100B4600F10A700871040319CB2DF501F50AF11BA2
:100B5600B62D0130F035F10D890BAD2D0130F400C5
:100B66007408F507AA2D71087302031DBC2D7008C1
:100B76007202031CC22D7008F2027108F33B0130A9
:100B8600F136F00C890BC32D0130F502031DB62D8D
:100B960076080319D32DF209F309F20A0319F30AA9
:100BA6007308F1007208F00008002000A500A101FA
:100BB600A20125088531432585317008FF3E2000B6
:100BC600A300FF30713DA4002208803AF8002408F3
:100BD600803A7802031DF12D23082102031808002C
:100BE600200021082507F8007808860087010108FB
:100BF600F9007908A00023082507F8007808860080
:100C060087010108F90021082507FA007A088600FD
:100C16008701790881002008F80023082507F900D4
:100C2600790886008701780881000130A107003025
:100C3600A23DFF30A307FF30A43DE72DF601F11FCB
:100C46002B2EF009F109F00A0319F10AF601F60A4A
:100C5600F31F362EF209F309F20A0319F30A0130DB
:100C6600F4007408F606F701F80170087104031918
:100C7600652EF501F50AF11B4A2E0130F035F10D0E
:100C8600890B412E0130F4007408F5073E2E013021
:100C9600F735F80D890B4B2E71087302031D552E7F
:100CA60070087202031C5C2E7008F2027108F33B96
:100CB60077140130F136F00C890B5D2E0130F50208
:100CC600031D4A2E760803196D2EF709F809F70A4F
:100CD6000319F80A7808F1007708F00008007C0884
:100CE6002000A9007B08A800A91F7E2EFB09FC098D
:100CF600FB0A0319FC0AAA01AB010A30F000003016
:100D0600F1007C08F3007B08F200853193258631DB
:100D16007008303E2000A6002A087D07A700270895
:100D260086008701260881000130AA070030AB3D06
:100D36000A30F0000030F1007C08F3007B08F20076
:100D46008631212686317108FC007008FB007C087C
:100D5600803A2000A60080302602031DB42E013002
:100D66007B020318802E2000A91FC72E2D30A60057
:100D76002A087D07A7002708860087012608810024
:100D86000130AA070030AB3D2A087D07A6002608D9
:100D96008600870181017D088531D825080023005A
:100DA6008C018E01783021009904033099040C13CC
:100DB6000F308D0003302000AC002C0821008E047B
:100DC6000C148E150E168431DA2486318431E4240F
:100DD600863185316725863120000C1C1B2F383063
:100DE60087313B2786312000380886008701403F3F
:100DF600FB00413FFC002E30AC002C08FD00863184
:100E060072268631D030F1008A30F20085311625FF
:100E160086312E30F1000030F200853116258631FC
:100E2600DF30F1008A30F2008531162586312D2F0C
:100E3600DA30F1008A30F2008531162586318531A7
:100E46000325863170088431CA2486310A308431FC
:100E5600CA24863115302000AD004B30AC00BE30C0
:100E6600890B332FAC0B332FAD0B332F0000EF2E36
:100E7600FC008431B3248731D0308431C3248731D8
:100E86003B308431C32487318431B3248731D13058
:100E96008431C3248731013085312A258731F90011
:100EA600FA017908FA00F9017C08860087017908B9
:100EB600C03F7A08C13F013085312A25873101308C
:100EC60085312A258731F900013085312A25873178
:100ED600FA007C08023E860087017908C03F7A083E
:100EE600C13F013085312A258731F900013085312E
:100EF6002A258731FA007C08043E86008701790896
:100F0600C03F7A08C13F013085312A258731F90073
:100F1600013085312A258731FA007C08063E860095
:100F260087017908C03F7A08C13F013085312A25FB
:100F36008731F900013085312A258731FA007C088E
:100F4600083E860087017908C03F7A08C13F013014
:100F560085312A258731F900013085312A258731E7
:100F6600FA007C080A3E860087017908C03F7A08A5
:100F7600C13F013085312A258731F900013085319D
:100F86002A258731FA007C080C3E860087017908FD
:100F9600C03F7A08C13F8431B82487317C08063EB9
:100FA600860087018530810741313030813D7F31B0
:100FB6005430F0000130F1007C08063E86008701BF
:100FC600403FF200413FF300863121267C08063E71
:100FD600860087017008C03F7108C13F0800D23003
:100FE6008400843085003930860000308700083060
:100FF6008431BD2420008631D22E12340034803450
:1010060000343A34003404340034123400340034EA
:1010160000341734003413340034183400340134E7
:10102600003432340034B634003419340034023417
:1010360000341A3400347A340034033400340A3469
:1010460000340C340034003400343E3400340034B0
:101056000034703400343A3400347134003435349A
:101066000034723400341134003473340034F034F4
:101076000034A23400340134003415340034003412
:1010860000347A340034203400347B340034103495
:1010960000347C3400341E3400347D34003435345E
:1010A60000347E3400345A3400347F3400346934DA
:1010B6000034803400347634003481340034803493
:1010C60000348234003488340034833400348F345E
:1010D6000034843400349634003485340034A33428
:1010E600003486340034AF34003487340034C434DA
:1010F600003488340034D734003489340034E8347A
:10110600003413340034C034003400340034003466
:10111600003410340034003400340D3400344034CC
:1011260000341434003418340034A5340034053443
:101136000034AB340034073400342434003495349E
:101146000034253400343334003426340034E33498
:1011560000349F34003478340034A03400346834CA
:101166000034A134003403340034A6340034D834B7
:101176000034A7340034D8340034A8340034F034B2
:101186000034A934003490340034AA340034943442
:10119600003413340034C5340034303400340034A1
:1011A600003431340034003400340E3400346134F9
:1011B60000340F3400344B34003416340034023417
:1011C60000341E3400340734003421340034023431
:1011D6000034223400349134003429340034073486
:1011E6000034333400340B340034353400340B34DB
:1011F6000034373400341D3400343834003471344C
:101206000034393400342A3400343C340034783421
:1012160000344D340034403400344E34003420342D
:10122600003469340034003400347434003410342B
:1012360000348D3400344F3400348E34003400349E
:1012460000348F34003400340034903400340034D9
:1012560000349134003400340034963400340034C1
:1012660000349A34003400340034B034003484340A
:101276000034B13400340C340034B23400340E344B
:101286000034B334003482340034B83400340A34C1
:101296000034433400340A34003444340034F03427
:1012A6000034453400343434003446340034583481
:1012B60000344734003428340034483400343A3497
:1012C600003459340034883400345A3400348834B5
:1012D60000345B340034443400345C340034673406
:1012E60000345D340034493400345E3400340E3446
:1012F60000346C3400340A3400346D340034553410
:1013060000346E340034113400346F3400349E34AB
:1013160000346A340034403400340134003440343C
:101326000034023400346034003413340034C734DB
:1013360000344F3400348034003450340034803468
:101346000034513400340034003452340034223432
:101356000034533400345E34003454340034803462
:101366000034583400349E34003441340034083498
:1013760000343F340034003400347534003405340E
:10138600003476340034E13400344C340034003414
:10139600003477340034013400343D3400344834AA
:1013A60000344B34003409340034C934003460341A
:1013B60000345634003440340034343400341134AC
:1013C60000343B34003412340034A4340034823404
:1013D600003496340034003400349734003430340A
:1013E60000349834003420340034993400343034D6
:1013F60000349A340034843400349B340034293465
:1014060000349C340034033400349D3400344C34AE
:1014160000349E3400343F340034783400340434CD
:1014260000347934003401340034C8340034F034E4
:101436000034793400340F340034C83400340034B6
:1014460000347934003410340034C83400347E3427
:101456000034793400340A340034C834003480341B
:101466000034793400340B340034C8340034013489
:101476000034793400340C340034C83400340F346A
:101486000034793400340D340034C8340034203448
:1014960000347934003409340034C83400348034DC
:1014A60000347934003402340034C8340034C03493
:1014B60000347934003403340034C8340034403402
:1014C60000347934003405340034C8340034303400
:1014D60000347934003426340034FF340034FF34C9
:1014E600003412340034003400348C3400340034B8
:1014F6000034043400340034003440340034C03442
:101506000034143400346A3400344F3400348034E8
:101516000034503400348034003451340034003404
:1015260000345234003422340034533400345E34F0
:10153600003454340034803400343D3400344034B4
:101546000034FF340034FF3400343E3400341934A0
:101556000034723400341134003473340034F134FE
:10156600003417340034163400341834003404348C
:10157600003432340034A4340034193400340234D4
:1015860000341A3400347A340034033400340A3414
:101596000034FF340034FF340034413463346334A0
:1015A60065346C34583420343D34203400344934A6
:0C15B600523420343D3400340A34003438
:020000040001F9
:02000E00FCF7FD
:00000001FF
